:100000000C94BF180C94E7180C94E7180C94E7189C
:100010000C94E7180C94E7180C94E7180C94E71864
:100020000C94E7180C94E7180C94B5260C94292727
:100030000C94E7180C94E7180C94E7180C94E71844
:100040000C94E7180C94E7180C94E7180C94E71834
:100050000C94E7180C94E7180C94E7180C946B2C8C
:100060000C94E7180C94E7180C94E7180C94E71814
:100070000C94E7180C94E7180C94E7180C94E71804
:100080000C94E7180C94E7180C94E7180C94E718F4
:100090000C94E7180C94E7180C94E7180C94E718E4
:1000A0000C94E7180C94E7180C94E7188B21502255
:1000B0005022AB22AB22AB22E422E4222D242D24B9
:1000C0002D240000000000000000000000000000DF
:1000D0000000000000000000000000000000000020
:1000E0000000000000000000000000000000000010
:1000F0000000000000000000000000000000000000
:1001000000000000000000000000000000000000EF
:1001100000000000000000000000000000000000DF
:10012000000000000000000000000000004000008F
:1001300000000000000040000040400600000000F9
:1001400000000000000000000000000000000000AF
:10015000000000000000000000000000000000009F
:10016000000000000000000000000000000000008F
:10017000000000000000000000000000000000007F
:10018000000000000000000000000000000000006F
:10019000000000000000000000000000000000005F
:1001A000000000000000100400000000000000102B
:1001B0000400204465000000000000000000000072
:1001C000000000000000000000000000000000002F
:1001D000000000000000000000000000000000001F
:1001E000000000000000000000000000000000000F
:1001F00000000000000000000000000000000000FF
:1002000000000000000000000000000000000000EE
:10021000000000000000000000000000000000409E
:100220004400000000000000404400404466060016
:1002300000000000000000000000000000000000BE
:1002400000000000000000000000000000000000AE
:10025000000000000000000000000000000000009E
:10026000000000000000000000000000000000008E
:10027000000000000000000000000000000000007E
:10028000000000000000000000000000000000006E
:10029000000000000000000000000400000000005A
:1002A00000000004000004640000000000000000E2
:1002B000000000000000000000000000000000003E
:1002C000000000000000000000000000000000002E
:1002D000000000000000000000000000000000001E
:1002E000000000000000000000000000000000000E
:1002F00000000000000000000000000000000000FE
:1003000000000000000000000000000000000000ED
:1003100000000041000000000000000041002043F8
:100320005406000000000000000000000000000073
:1003300000000000000000000000000000000000BD
:1003400000000000000000000000000000000000AD
:10035000000000000000000000000000000000009D
:10036000000000000000000000000000000000008D
:10037000000000000000000000000000000000007D
:100380000000000000000000000010114404000004
:10039000000000202244444455656600000000002F
:1003A000000000000000000000000000000000004D
:1003B000000000000000000000000000000000003D
:1003C000000000000000000000000000000000002D
:1003D000000000000000000000000000000000001D
:1003E000000000000000000000000000000000000D
:1003F00000000000000000000000000000000000FD
:10040000000000000000400000000000000000406C
:100410000000404006000000000000000000000056
:1004200000000000000000000000000000000000CC
:1004300000000000000000000000000000000000BC
:1004400000000000000000000000000000000000AC
:10045000000000000000000000000000000000009C
:10046000000000000000000000000000000000008C
:10047000000000000000000000000000000000106C
:1004800004000000000000001044444444650000E3
:10049000000000000000000000000000000000005C
:1004A000000000000000000000000000000000004C
:1004B000000000000000000000000000000000003C
:1004C000000000000000000000000000000000002C
:1004D000000000000000000000000000000000001C
:1004E000000000000000000000000000000000000C
:1004F0000000000000404444444400000000404428
:100500004444446666666606000000000000000081
:1005100000000000000000000000000000000000DB
:1005200000000000000000000000000000000000CB
:1005300000000000000000000000000000000000BB
:1005400000000000000000000000000000000000AB
:10055000000000000000000000000000000000009B
:10056000000000000000000000000000000000008B
:10057000000000040000000000000000040000046F
:100580006400000000000000000000000000000007
:10059000000000000000000000000000000000005B
:1005A000000000000000000000000000000000004B
:1005B000000000000000000000000000000000003B
:1005C000000000000000000000000000000000002B
:1005D000000000000000000000000000000000001B
:1005E00000000000000000000000000041000000CA
:1005F000000000000041000042540600000000001E
:1006000000000000000000000000000000000000EA
:1006100000000000000000000000000000000000DA
:1006200000000000000000000000000000000000CA
:1006300000000000000000000000000000000000BA
:1006400000000000000000000000000000000000AA
:10065000000000000000000000000000000000009A
:1006600000000000004404000000000000004404FA
:10067000004464660000000000000000000000006C
:10068000000000000000000000000000000000006A
:10069000000000000000000000000000000000005A
:1006A000000000000000000000000000000000004A
:1006B000000000000000000000000000000000003A
:1006C000000000000000000000000000000000002A
:1006D00000000000000000000000000000000040DA
:1006E0000000000000000000400000404006000044
:1006F00000000000000000000000000000000000FA
:1007000000000000000000000000000000000000E9
:1007100000000000000000000000000000000000D9
:1007200000000000000000000000000000000000C9
:1007300000000000000000000000000000000000B9
:1007400000000000000000000000000000000000A9
:100750000000000000000000100400000000000085
:10076000001004003244650000000000000000009A
:100770000000000000000000000000000000000079
:100780000000000000000000000000000000000069
:100790000000000000000000000000000000000059
:1007A0000000000000000000000000000000000049
:1007B0000000000000000000000000000000000039
:1007C0000000000000000000000000000000000029
:1007D0001141440000000020223343444454556634
:1007E0000600000000000000000000000000000003
:1007F00000000000000000000000000000000000F9
:1008000000000000000000000000000000000000E8
:1008100000000000000000000000000000000000D8
:1008200000000000000000000000000000000000C8
:1008300000000000000000000000000000000000B8
:1008400000000000000000000000000004000000A4
:10085000000000000004000004640000000000002C
:100860000000000000000000000000000000000088
:100870000000000000000000000000000000000078
:100880000000000000000000000000000000000068
:100890000000000000000000000000000000000058
:1008A0000000000000000000000000000000000048
:1008B0000000000000000000000000000000000038
:1008C000000000000041000000001011111141441F
:1008D0004444540600000000000000000000000036
:1008E0000000000000000000000000000000000008
:1008F00000000000000000000000000000000000F8
:1009000000000000000000000000000000000000E7
:1009100000000000000000000000000000000000D7
:1009200000000000000000000000000000000000C7
:1009300000000000000020222222224444444444BB
:100940004444444455555555656666666600000046
:100950000000000000000000000000000000000097
:100960000000000000000000000000000000000087
:100970000000000000000000000000000000000077
:100980000000000000000000000000000000000067
:100990000000000000000000000000000000000057
:1009A0000000000000000000000000000000000047
:1009B00000000000000000004000000000000000F7
:1009C0000040000040400600000000000000000061
:1009D0000000000000000000000000000000000017
:1009E0000000000000000000000000000000000007
:1009F00000000000000000000000000000000000F7
:100A000000000000000000000000000000000000E6
:100A100000000000000000000000000000000000D6
:100A200000000000000000000000000000000000C6
:100A300000100400000000000000100400204465C5
:100A400000000000000000000000000000000000A6
:100A50000000000000000000000000000000000096
:100A60000000000000000000000000000000000086
:100A70000000000000000000000000000000000076
:100A80000000000000000000000000000000000066
:100A90000000000000000000000000000000000056
:100AA00000000000000000000000404400000000C2
:100AB00000000040440040446606000000000000C2
:100AC0000000000000000000000000000000000026
:100AD0000000000000000000000000000000000016
:100AE0000000000000000000000000000000000006
:100AF00000000000000000000000000000000000F6
:100B000000000000000000000000000000000000E5
:100B100000000000000000000000000000000000D5
:100B200000000000000400000000000000000400BD
:100B3000000464000000000000000000000000004D
:100B400000000000000000000000000000000000A5
:100B50000000000000000000000000000000000095
:100B60000000000000000000000000000000000085
:100B70000000000000000000000000000000000075
:100B80000000000000000000000000000000000065
:100B90000000000000000000000000000000410014
:100BA0000000000000000041002043540600000047
:100BB0000000000000000000000000000000000035
:100BC0000000000000000000000000000000000025
:100BD0000000000000000000000000000000000015
:100BE0000000000000000000000000000000000005
:100BF00000000000000000000000000000000000F5
:100C000000000000000000000000000000000000E4
:100C1000000000000010114444444444444444444F
:100C200044444455656600000000000000000000D8
:100C300000000000000000000000000000000000B4
:100C400000000000000000000000000000000000A4
:100C50000000000000000000000000000000000094
:100C60000000000000000000000000000000000084
:100C70000000000000000000000000000000000074
:100C80000000000000000000000000000000000064
:100C9000004000000000000000004000004040064E
:100CA0000000000000000000000000000000000044
:100CB0000000000000000000000000000000000034
:100CC0000000000000000000000000000000000024
:100CD0000000000000000000000000000000000014
:100CE0000000000000000000000000000000000004
:100CF00000000000000000000000000000000000F4
:100D0000000000000000000000001044444444447F
:100D1000444444444444444465000000000000004E
:100D200000000000000000000000000000000000C3
:100D300000000000000000000000000000000000B3
:100D400000000000000000000000000000000000A3
:100D50000000000000000000000000000000000093
:100D60000000000000000000000000000000000083
:100D70000000000000000040444444444444444413
:100D800044444444446666666666666666666666AD
:100D90006666060000000000000000000000000081
:100DA0000000000000000000000000000000000043
:100DB0000000000000000000000000000000000033
:100DC0000000000000000000000000000000000023
:100DD0000000000000000000000000000000000013
:100DE0000000000000000000000000000000000003
:100DF00000000000000000000000000000000400EF
:100E00000000000000000004000004640000000076
:100E100000000000000000000000000000000000D2
:100E200000000000000000000000000000000000C2
:100E300000000000000000000000000000000000B2
:100E400000000000000000000000000000000000A2
:100E50000000000000000000000000000000000092
:100E60000000000000000000000000000000000082
:100E70000000000000000041000000000000000031
:100E80004100004254060000000000000000000085
:100E90000000000000000000000000000000000052
:100EA0000000000000000000000000000000000042
:100EB0000000000000000000000000000000000032
:100EC0000000000000000000000000000000000022
:100ED0000000000000000000000000000000000012
:100EE0000000000000000000000000000000000002
:100EF0004404000000000000004404004464660054
:100F000000000000000000000000000000000000E1
:100F100000000000000000000000000000000000D1
:100F200000000000000000000000000000000000C1
:100F300000000000000000000000000000000000B1
:100F400000000000000000000000000000000000A1
:100F50000000000000000000000000000000000091
:100F60000000000000000000000040000000000041
:100F700000000040000040400600000000000000AB
:100F80000000000000000000000000000000000061
:100F90000000000000000000000000000000000051
:100FA0000000000000000000000000000000000041
:100FB0000000000000000000000000000000000031
:100FC0000000000000000000000000000000000021
:100FD0000000000000000000000000000000000011
:100FE00000000010040000000000000010040032A7
:100FF0004465000000000000000000000000000048
:1010000000000000000000000000000000000000E0
:1010100000000000000000000000000000000000D0
:1010200000000000000000000000000000000000C0
:1010300000000000000000000000000000000000B0
:1010400000000000000000000000000000000000A0
:1010500000000000000000000000001141440000FA
:10106000000000002242444454556606000000007F
:101070000000000000000000000000000000000070
:101080000000000000000000000000000000000060
:101090000000000000000000000000000000000050
:1010A0000000000000000000000000000000000040
:1010B0000000000000000000000000000000000030
:1010C0000000000000000000000000000000000020
:1010D000000000000000000400000000000000000C
:1010E0000400000464000000000000000000000094
:1010F00000000000000000000000000000000000F0
:1011000000000000000000000000000000000000DF
:1011100000000000000000000000000000000000CF
:1011200000000000000000000000000000000000BF
:1011300000000000000000000000000000000000AF
:10114000000000000000000000000000000000009F
:1011500041000000000000000041444444540600E7
:10116000000000000000000000000000000000007F
:10117000000000000000000000000000000000006F
:10118000000000000000000000000000000000005F
:10119000000000000000000000000000000000004F
:1011A000000000000000000000000000000000003F
:1011B000000000000000000000000000000000002F
:1011C00000000000000044444444040000000044C7
:1011D0004444446466666666000000000000000047
:1011E00000000000000000000000000000000000FF
:1011F00000000000000000000000000000000000EF
:1012000000000000000000000000000000000000DE
:1012100000000000000000000000000000000000CE
:1012200000000000000000000000000000000000BE
:1012300000000000000000000000000000000000AE
:1012400000000040000000000000000040000040DE
:101250004006000000000000000000000000000048
:10126000000000000000000000000000000000007E
:10127000000000000000000000000000000000006E
:10128000000000000000000000000000000000005E
:10129000000000000000000000000000000000004E
:1012A000000000000000000000000000000000003E
:1012B000000000000000000000000000100400001A
:1012C0000000000000100400204465000000000041
:1012D000000000000000000000000000000000000E
:1012E00000000000000000000000000000000000FE
:1012F00000000000000000000000000000000000EE
:1013000000000000000000000000000000000000DD
:1013100000000000000000000000000000000000CD
:1013200000000000000000000000000000000000BD
:1013300000000000004044000000000000004044A5
:1013400000404466060000000000000000000000AD
:10135000000000000000000000000000000000008D
:10136000000000000000000000000000000000007D
:10137000000000000000000000000000000000006D
:10138000000000000000000000000000000000005D
:10139000000000000000000000000000000000004D
:1013A000000000000000000000000000000000003D
:1013B00004000000000000000004000004640000BD
:1013C000000000000000000000000000000000001D
:1013D000000000000000000000000000000000000D
:1013E00000000000000000000000000000000000FD
:1013F00000000000000000000000000000000000ED
:1014000000000000000000000000000000000000DC
:1014100000000000000000000000000000000000CC
:10142000000000000000000000410000000000007B
:1014300000004100204354060000000000000000AE
:10144000000000000000000000000000000000009C
:10145000000000000000000000000000000000008C
:10146000000000000000000000000000000000007C
:10147000000000000000000000000000000000006C
:10148000000000000000000000000000000000005C
:10149000000000000000000000000000000000004C
:1014A00010114404000000002232334444445565C6
:1014B00066000000000000000000000000000000C6
:1014C000000000000000000000000000000000001C
:1014D000000000000000000000000000000000000C
:1014E00000000000000000000000000000000000FC
:1014F00000000000000000000000000000000000EC
:1015000000000000000000000000000000000000DB
:10151000000000000000000000000000400000008B
:1015200000000000004000004040060000000000F5
:1015300000000000000000000000000000000000AB
:10154000000000000000000000000000000000009B
:10155000000000000000000000000000000000008B
:10156000000000000000000000000000000000007B
:10157000000000000000000000000000000000006B
:10158000000000000000000000000000000000005B
:1015900000000000001004000000001111111144AF
:1015A000444444650000000000000000000000000A
:1015B000000000000000000000000000000000002B
:1015C000000000000000000000000000000000001B
:1015D000000000000000000000000000000000000B
:1015E00000000000000000000000000000000000FB
:1015F00000000000000000000000000000000000EB
:101600000000202222222233333333434444444413
:101610004444444454555555556666666606000074
:1016200000000000000000000000000000000000BA
:1016300000000000000000000000000000000000AA
:10164000000000000000000000000000000000009A
:10165000000000000000000000000000000000008A
:10166000000000000000000000000000000000007A
:10167000000000000000000000000000000000006A
:101680000000000000000000000400000000000056
:1016900000000400000464000000000000000000DE
:1016A000000000000000000000000000000000003A
:1016B000000000000000000000000000000000002A
:1016C000000000000000000000000000000000001A
:1016D000000000000000000000000000000000000A
:1016E00000000000000000000000000000000000FA
:1016F00000000000000000000000000000000000EA
:1017000000004100000000000000004100004254C1
:1017100006000000000000000000000000000000C3
:1017200000000000000000000000000000000000B9
:1017300000000000000000000000000000000000A9
:101740000000000000000000000000000000000099
:101750000000000000000000000000000000000089
:101760000000000000000000000000000000000079
:101770000000000000000000000000440400000021
:101780000000000044040044646600000000000003
:101790000000000000000000000000000000000049
:1017A0000000000000000000000000000000000039
:1017B0000000000000000000000000000000000029
:1017C0000000000000000000000000000000000019
:1017D0000000000000000000000000000000000009
:1017E00000000000000000000000000000000000F9
:1017F0000000000000400000000000000000400069
:101800000040400600000000000000000000000052
:1018100000000000000000000000000000000000C8
:1018200000000000000000000000000000000000B8
:1018300000000000000000000000000000000000A8
:101840000000000000000000000000000000000098
:101850000000000000000000000000000000000088
:101860000000000000000000000000000000100464
:101870000000000000000010040032446500000079
:101880000000000000000000000000000000000058
:101890000000000000000000000000000000000048
:1018A0000000000000000000000000000000000038
:1018B0000000000000000000000000000000000028
:1018C0000000000000000000000000000000000018
:1018D00000000000000000000000001011111111B4
:1018E0001111111111111141444444444444444420
:1018F0004444445455660600000000000000000007
:1019000000000000000000000000000000000000D7
:1019100000000000000000000000000000000000C7
:1019200000000000000000000000000000000000B7
:1019300000000000000000000000000000000000A7
:101940000000000000000000000000000000000097
:101950000000000000000000000000000000000087
:101960000000040000000000000000040000046407
:101970000000000000000000000000000000000067
:101980000000000000000000000000000000000057
:101990000000000000000000000000000000000047
:1019A0000000000000000000000000000000000037
:1019B0000000000000000000000000000000000027
:1019C00000000000000000000000000000001011F6
:1019D00011111111111111111111114144444444FB
:1019E000444444444444444454060000000000007D
:1019F00000000000000000000000000000000000E7
:101A000000000000000000000000000000000000D6
:101A100000000000000000000000000000000000C6
:101A200000000000000000000000000000000000B6
:101A30000000000000000000000040444444444412
:101A400044444444444444445555555555555555CE
:101A5000555555555565666666666666666666667C
:101A60006666660000000000000000000000000044
:101A70000000000000000000000000000000000066
:101A80000000000000000000000000000000000056
:101A90000000000000000000000000000000000046
:101AA0000000000000000000000000000000000036
:101AB0000000000000000000000000000000000026
:101AC00000000000000000000000000000004000D6
:101AD0000000000000000040000040400600000040
:101AE00000000000000000000000000000000000F6
:101AF00000000000000000000000000000000000E6
:101B000000000000000000000000000000000000D5
:101B100000000000000000000000000000000000C5
:101B200000000000000000000000000000000000B5
:101B300000000000000000000000000000000000A5
:101B40000000000000000010040000000000000081
:101B500010040020446500000000000000000000A8
:101B60000000000000000000000000000000000075
:101B70000000000000000000000000000000000065
:101B80000000000000000000000000000000000055
:101B90000000000000000000000000000000000045
:101BA0000000000000000000000000000000000035
:101BB0000000000000000000000000000000000025
:101BC000404400000000000000404400404466061D
:101BD0000000000000000000000000000000000005
:101BE00000000000000000000000000000000000F5
:101BF00000000000000000000000000000000000E5
:101C000000000000000000000000000000000000D4
:101C100000000000000000000000000000000000C4
:101C200000000000000000000000000000000000B4
:101C300000000000000000000000000400000000A0
:101C40000000000004000004640000000000000028
:101C50000000000000000000000000000000000084
:101C60000000000000000000000000000000000074
:101C70000000000000000000000000000000000064
:101C80000000000000000000000000000000000054
:101C90000000000000000000000000000000000044
:101CA0000000000000000000000000000000000034
:101CB0000000000041000000000000000041002082
:101CC0004354060000000000000000000000000077
:101CD0000000000000000000000000000000000004
:101CE00000000000000000000000000000000000F4
:101CF00000000000000000000000000000000000E4
:101D000000000000000000000000000000000000D3
:101D100000000000000000000000000000000000C3
:101D2000000000000000000000000010114404004A
:101D30000000000020224444445565660000000075
:101D40000000000000000000000000000000000093
:101D50000000000000000000000000000000000083
:101D60000000000000000000000000000000000073
:101D70000000000000000000000000000000000063
:101D80000000000000000000000000000000000053
:101D90000000000000000000000000000000000043
:101DA00000000000000000400000000000000000F3
:101DB000400000404006000000000000000000005D
:101DC0000000000000000000000000000000000013
:101DD0000000000000000000000000000000000003
:101DE00000000000000000000000000000000000F3
:101DF00000000000000000000000000000000000E3
:101E000000000000000000000000000000000000D2
:101E100000000000000000000000000000000000C2
:101E20001004000000000000001044444444650019
:101E300000000000000000000000000000000000A2
:101E40000000000000000000000000000000000092
:101E50000000000000000000000000000000000082
:101E60000000000000000000000000000000000072
:101E70000000000000000000000000000000000062
:101E80000000000000000000000000000000000052
:101E900000000000000040444444440000000040B2
:101EA0004444444466666666060000000000000084
:101EB0000000000000000000000000000000000022
:101EC0000000000000000000000000000000000012
:101ED0000000000000000000000000000000000002
:101EE00000000000000000000000000000000000F2
:101EF00000000000000000000000000000000000E2
:101F000000000000000000000000000000000000D1
:101F100000000000040000000000000000040000B9
:101F20000464000000000000000000000000000049
:101F300000000000000000000000000000000000A1
:101F40000000000000000000000000000000000091
:101F50000000000000000000000000000000000081
:101F60000000000000000000000000000000000071
:101F70000000000000000000000000000000000061
:101F80000000000000000000000000000041000010
:101F90000000000000004100004254060000000064
:101FA0000000000000000000000000000000000031
:101FB0000000000000000000000000000000000021
:101FC0000000000000000000000000000000000011
:101FD0000000000000000000000000000000000001
:101FE00000000000000000000000000000000000F1
:101FF00000000000000000000000000000000000E1
:102000000000000000004404000000000000004444
:1020100004004464660000000000000000000000AE
:1020200000000000000000000000000000000000B0
:1020300000000000000000000000000000000000A0
:102040000000000000000000000000000000000090
:102050000000000000000000000000000000000080
:102060000000000000000000000000000000000070
:102070000000000000000000000000000000000060
:10208000400000000000000000400000404006004A
:102090000000000000000000000000000000000040
:1020A0000000000000000000000000000000000030
:1020B0000000000000000000000000000000000020
:1020C0000000000000000000000000000000000010
:1020D0000000000000000000000000000000000000
:1020E00000000000000000000000000000000000F0
:1020F00000000000000000000010040000000000CC
:1021000000001004003244650000000000000000E0
:1021100000000000000000000000000000000000BF
:1021200000000000000000000000000000000000AF
:10213000000000000000000000000000000000009F
:10214000000000000000000000000000000000008F
:10215000000000000000000000000000000000007F
:10216000000000000000000000000000000000006F
:1021700000114144000000002022334344445455E0
:1021800066060000000000000000000000000000E3
:10219000000000000000000000000000000000003F
:1021A000000000000000000000000000000000002F
:1021B000000000000000000000000000000000001F
:1021C000000000000000000000000000000000000F
:1021D00000000000000000000000000000000000FF
:1021E00000000000000000000000000000040000EB
:1021F0000000000000000400000464000000000073
:1022000000000000000000000000000000000000CE
:1022100000000000000000000000000000000000BE
:1022200000000000000000000000000000000000AE
:10223000000000000000000000000000000000009E
:10224000000000000000000000000000000000008E
:10225000000000000000000000000000000000007E
:1022600000000000000041000000001011111141A9
:102270004444445406000000000000000000000038
:10228000000000000000000000000000000000004E
:10229000000000000000000000000000000000003E
:1022A000000000000000000000000000000000002E
:1022B000000000000000000000000000000000001E
:1022C0000000000000404444444444444444444426
:1022D00044444444444444444444444444444444BE
:1022E0004444444444555555556566666666000049
:1022F00000000000000000000000000000000000DE
:1023000000000000000000000000000000000000CD
:1023100000000000000000000000000000000000BD
:1023200000000000000000000000000000000000AD
:10233000000000000000000000000000000000009D
:10234000000000000000000000000000000000008D
:10235000000000000000000000400000000000003D
:1023600000004000004040060000000000000000A7
:10237000000000000000000000000000000000005D
:10238000000000000000000000000000000000004D
:10239000000000000000000000000000000000003D
:1023A000000000000000000000000000000000002D
:1023B000000000000000000000000000000000001D
:1023C000000000000000000000000000000000000D
:1023D0000000100400000000000000100400204471
:1023E0006500000000000000000000000000000088
:1023F00000000000000000000000000000000000DD
:1024000000000000000000000000000000000000CC
:1024100000000000000000000000000000000000BC
:1024200000000000000000000000000000000000AC
:10243000000000000000000000000000000000009C
:102440000000000000000000000000404400000008
:102450000000000040440040446606000000000008
:10246000000000000000000000000000000000006C
:10247000000000000000000000000000000000005C
:10248000000000000000000000000000000000004C
:10249000000000000000000000000000000000003C
:1024A000000000000000000000000000000000002C
:1024B000000000000000000000000000000000001C
:1024C0000000000000000400000000000000000404
:1024D0000000046400000000000000000000000094
:1024E00000000000000000000000000000000000EC
:1024F00000000000000000000000000000000000DC
:1025000000000000000000000000000000000000CB
:1025100000000000000000000000000000000000BB
:1025200000000000000000000000000000000000AB
:10253000000000000000000000000000000000415A
:10254000000000000000000041002043540600008D
:10255000000000000000000000000000000000007B
:10256000000000000000000000000000000000006B
:10257000000000000000000000000000000000005B
:10258000000000000000000000000000000000004B
:1025900000000000000000000000000000004044B7
:1025A00044444444444444444444444444444444EB
:1025B00044444444444444444444444444444444DB
:1025C00044444444556566000000000000000000DB
:1025D00000000000000000000000000000000000FB
:1025E00000000000000000000000000000000000EB
:1025F00000000000000000000000000000000000DB
:1026000000000000000000000000000000000000CA
:1026100000000000000000000000000000000000BA
:1026200000000000000000000000000000000000AA
:10263000000040000000000000000040000040409A
:102640000600000000000000000000000000000084
:10265000000000000000000000000000000000007A
:10266000000000000000000000000000000000006A
:10267000000000000000000000000000000000005A
:10268000000000000000000000000000000000004A
:102690000040444444444444444444444444444442
:1026A00044444444444444444444444444444444EA
:1026B0004444444444444444446500000000000051
:1026C000000000000000000000000000000000000A
:1026D00000000000000000000000000000000000FA
:1026E00000000000000000000000000000000000EA
:1026F00000000000000000000000000000000000DA
:1027000000000000000000000000006666666666CB
:102710006666666666666666666666666666666659
:102720006666666666666666666666666666666649
:1027300066666606D5F08D14A1C881CFD9F1AF20A9
:1027400000804000000000000000000000E09088D1
:10275000C4848282028282828282C2C2840418205D
:10276000C0000000000000000000000000000000A9
:10277000000000000080C0C08000000000000000D9
:1027800080C0C080000000000000E0E0C0800000C9
:102790000000000040E0C0800080C0E0400000C0B9
:1027A000C0C00000008080804040404040400000A9
:1027B00000000000008080C0C0C0808000000000D9
:1027C0000000000000000000000000C0BFC0FFBF0C
:1027D000BFBFBF3FFFFFFFFFBFBFBFFFFFFEF00058
:1027E00000FF80000000000000000000C020C000CA
:1027F00000000000303F3F0303070C1C381C0E078D
:1028000003033F3F000000303C1F1F191B1F1E3CED
:102810003000000010381F07070F18180000003F95
:102820003F1F0002070F0F1C1830303131191F1ED7
:102830000E0400060F1F19303030191F0F0600005C
:1028400000000000000000000000000718FFFFFE6D
:10285000F8F8FC4D5F5F5F4D58F8FCFCFFFFFF7E12
:102860003629130F0000000000000060A1AEF1EE59
:10287000E0E0600000000000000000000000000038
:102880000000000000000000000000000000000048
:102890000000000000000000000000000000000038
:1028A0000000000000000000000000000000000028
:1028B0000000000000000000000000000000000018
:1028C0000000000000000000000000000000C1C384
:1028D000E3F7CF1E1E1C9E9ECFCFF7C7C3C38180D8
:1028E00080000000000000C0E02050F1DA8E0406F5
:1028F00002020100000000000000000000000000D3
:1029000000000000000000000000000000000000C7
:1029100000000000000000000000000000000000B7
:1029200000000000000000000000000000000000A7
:102930000000000000000000000000000000000097
:102940000000000000000080C0F0FCECDEBFF7F3E8
:10295000F9080C9E383833930F07FFFFFFFFFF87FE
:102960003FFFFEFC783080FDFBFBF6160A010000FD
:102970000000000000000000000000000000000057
:102980000000000000000000000000000000000047
:102990000000000000000000000000000000000037
:1029A0000000000000000000000000000000000027
:1029B0000000000000000000000000000000000017
:1029C0000000000000001E7FFF7FBEBDC7C09DFF4E
:1029D0003F70F8FFFFFEFFFFF8F8FFFFFF7F3F1F8C
:1029E0000001030704070F1F1F0F0700000000006E
:1029F00000000000000000000000000000000000D7
:102A000000000000000000000000000000000000C6
:102A100000000000000000000000000000000000B6
:102A200000000000000000000000000000000000A6
:102A30000000000000000000000000000000000096
:102A40000000000000000000011F3F3733CDF4F705
:102A5000F7F6E6E6EEEEEFEEE6E6E6C6F6F6F3FBB2
:102A6000F0C00000000000000000000000000000B6
:102A7000000000000000000000C00000C00040C0D6
:102A8000400040C04000C04040800080000000C0C6
:102A9000000000C000C0800080C000804040800076
:102AA000408000804000C0008040404000804040A6
:102AB00080000000C0404000C00000C0000000C016
:102AC00000000000107800400048685000F1FFE965
:102AD000E7E3E3D7D7CFE7E7EFD7D7E3E3E3EFF1D8
:102AE000E100000000000000000000000000000005
:102AF00000000000000000000007010107000007BF
:102B000000000007000007010100000200060100AC
:102B1000000601000007000100070007010107008F
:102B20000402010204000700030405030003040477
:102B30000300040007050500030404030006010068
:102B4000000000080B00020202000009040000015E
:102B500002020000052400100105240101010424E3
:102B60000206052406000107058103100040090440
:102B70000100020A000000070502024000000705EC
:102B800083024000000403090412010002EF020165
:102B900040412336800001010203014172647569DE
:102BA0006E6F204C4C430041726475696E6F204C0F
:102BB000656F6E6172646F00F0F89C8E8783878EFC
:102BC0009CF8F00000FEFF0303030303070EFCF86C
:102BD0000000FEFF0303030303070EFCF80000FFE1
:102BE000FF00000000000000FFFF0000FEFF8383E5
:102BF000838383C7EE7C380000F8FC0E07030303D1
:102C0000070EFCF800003F7FE0C08080C0E07F3FFF
:102C1000FFFF01010101010101FFFF0000FFFF0CA7
:102C20000C0C0C1C3E77E3C100007FFFC0C0C0C08D
:102C3000C0E0703F1F00001F3F70E0C0C0C0E070E8
:102C40003F1F00007FFFC1C1C1C1C1E3773E1C002F
:102C5000001F3F70E0C0C0C0E0703F1F00000000D8
:102C60000001FFFF0100000000000000003E5B4F7C
:102C70005B3E3E6B4F6B3E1C3E7C3E1C183C7E3CDC
:102C8000181C577D571C1C5E7F5E1C00183C1800EA
:102C9000FFE7C3E7FF0018241800FFE7DBE7FF307A
:102CA000483A060E2629792926407F050507407FE8
:102CB00005253F5A3CE73C5A7F3E1C1C08081C1C5B
:102CC0003E7F14227F22145F5F005F5F06097F0151
:102CD0007F006689956A606060606094A2FFA2943C
:102CE00008047E040810207E201008082A1C08080A
:102CF0001C2A08081E101010100C1E0C1E0C303858
:102D00003E3830060E3E0E06000000000000005F58
:102D100000000007000700147F147F14242A7F2A74
:102D20001223130864623649562050000807030036
:102D3000001C2241000041221C002A1C7F1C2A0882
:102D4000083E0808008070300008080808080000E5
:102D500060600020100804023E5149453E00427F59
:102D6000400072494949462141494D331814127FA8
:102D70001027454545393C4A494931412111090748
:102D80003649494936464949291E000014000000C9
:102D9000403400000008142241141414141400419B
:102DA00022140802015909063E415D594E7C121158
:102DB000127C7F494949363E414141227F41414190
:102DC0003E7F494949417F090909013E414151730B
:102DD0007F0808087F00417F41002040413F017F7C
:102DE000081422417F404040407F021C027F7F0444
:102DF00008107F3E4141413E7F090909063E41518D
:102E0000215E7F09192946264949493203017F017C
:102E1000033F4040403F1F2040201F3F4038403F7D
:102E2000631408146303047804036159494D430093
:102E30007F4141410204081020004141417F0402CA
:102E40000102044040404040000307080020545461
:102E500078407F284444383844444428384444283F
:102E60007F385454541800087E090218A4A49C7892
:102E70007F0804047800447D40002040403D007FEE
:102E80001028440000417F40007C047804787C08CE
:102E90000404783844444438FC18242418182424A2
:102EA00018FC7C08040408485454542404043F4487
:102EB000243C4040207C1C2040201C3C4030403CB6
:102EC00044281028444C9090907C4464544C440016
:102ED000083641000000770000004136080002017A
:102EE0000204023C2623263C1EA1A161123A404066
:102EF000207A3854545559215555794121545478E4
:102F000041215554784020545579400C1E5272127C
:102F10003955555559395454545939555454580004
:102F200000457C410002457D420001457C40F0297E
:102F30002429F0F0282528F07C54554500205454CD
:102F40007C547C0A097F4932494949323248484811
:102F500032324A4848303A4141217A3A4240207858
:102F6000009DA0A07D39444444393D4040403D3C53
:102F700024FF2424487E4943662B2FFC2F2BFF0976
:102F800029F620C0887E090320545479410000446A
:102F90007D413048484A32384040227A007A0A0A55
:102FA000727D0D19317D2629292F282629292926C8
:102FB00030484D4020380808080808080808382F0D
:102FC00010C8ACBA2F102834FA00007B0000081497
:102FD0002A142222142A14089500220095AA0055CA
:102FE00000AAAA55AA55AA000000FF00101010FF61
:102FF00000141414FF001010FF00FF1010F010F068
:10300000141414FC001414F700FF0000FF00FF1458
:1030100014F404FC141417101F10101F101F1414A4
:10302000141F00101010F0000000001F10101010EE
:103030001F10101010F010000000FF1010101010E2
:1030400010101010FF10000000FF140000FF00FF20
:1030500000001F10170000FC04F4141417101714BC
:1030600014F404F40000FF00F714141414141414DE
:10307000F700F7141414171410101F101F14141451
:10308000F4141010F010F000001F101F0000001FBB
:1030900014000000FC140000F010F01010FF10FFEE
:1030A000141414FF141010101F00000000F010FF83
:1030B000FFFFFFFFF0F0F0F0F0FFFFFF0000000067
:1030C00000FFFF0F0F0F0F0F38444438447C2A2AAB
:1030D0003E147E02020606027E027E0263554941CC
:1030E000633844443C04407E201E2006027E0202D7
:1030F00099A5E7A5991C2A492A1C4C7201724C30EB
:103100004A4D4D303048784830BC625A463D3E49C1
:103110004949007E0101017E2A2A2A2A2A44445F65
:10312000444440514A444040444A51400000FF0159
:1031300003E080FF000008086B6B08361236243667
:10314000060F090F060000181800000010100030CC
:1031500040FF0101001F01011E00191D1712003C54
:103160003C3C3C00000000000408060F090F090F5A
:10317000060F0408020F0E0F070F040FC3351124AA
:103180001FBECFEFDAE0DEBFCDBF11E0A0E0B1E0BF
:10319000EEEFFEE602C005900D92AE3BB107D9F707
:1031A00027E0AEEBB1E001C01D92A435B207E1F714
:1031B00018E1CFEBD8E104C02197FE010E947237DD
:1031C000CE3BD107C9F70E946C1F0C947D370C943D
:1031D0000000863029F0843028F4811105C008955C
:1031E00085E0089584E0089583E00895AF92CF923A
:1031F000EF920F931F93CF93DF93D02F302F330F86
:10320000330F142F131B312FC22F522F550F550F71
:10321000762F751B572F74E0A0E0B0E03D3070F4BE
:103220005D3070F41DE05103F0011124E80FF91F27
:10323000E30FF11D37FDFA95148103C01E2D01C067
:103240001E2DA1101195FD01EE0FFF1FAE0FBF1F28
:103250001196A10FB11D17FDBA9571503D0F5C0F6E
:103260007111DCCFFD01EE0FFF1FEA0FFB1FA11054
:10327000C1943196EC0DF11DC7FCFA95400F620F19
:1032800024E05DE04D3070F46D3070F46503D001E2
:103290001124A80FB91FA40FB11D47FDBA951496AC
:1032A0003C9103C03E2D01C03E2DA1103195DF01A0
:1032B000AA0FBB1FEA0FFB1F3196E30FF11D37FD6D
:1032C000FA9521504D0F6C0F2111DCCFCF01DF910A
:1032D000CF911F910F91EF90CF90AF900895CF9223
:1032E000EF920F931F93CF93DF93FC01D02F000F2A
:1032F000000F401BC22F220F220F621B59E080E0FB
:1033000090E01DE04D3070F46D3070F46103D00139
:103310001124AE0FBF1FA40FB11D47FDBA9514961F
:103320007C9103C07E2D01C07E2DC11071959C0142
:10333000220F331F820F931F0196870F911D77FD78
:103340009A9551504D0F6C0F5111DCCFDF91CF91F9
:103350001F910F91EF90CF900895613049F4FC01D7
:10336000F695E795EE53FF4FE49180FD03C004C04E
:103370000E947837E295EF708E2F8F7008958F92AC
:103380009F92AF92BF92CF92DF92EF92FF920F93F4
:103390001F93CF93DF934C01162FF42ED22EC02F04
:1033A000D1E00F3F09F0D0E0AD2ECC2EED2C01E0A6
:1033B00020E04F2D612FC4010E94F61861E00E94A9
:1033C000AD1920E04F2D612FC4010E94F61861E075
:1033D0000E94AD19B82E00E021E04F2D612FC401ED
:1033E0000E94F61861E00E94AD198B1550F021E0A3
:1033F0004F2D612FC4010E94F61861E00E94AD19A3
:10340000B82EAD2ECC2EED2C01E021E04F2D612FFA
:10341000C4010E94F61861E00E94AD198B1550F0AE
:1034200021E04F2D612FC4010E94F61861E00E9437
:10343000AD19B82EAD2ECC2EED2C0FEF21E04F2D77
:10344000612FC4010E94F61861E00E94AD198B152E
:1034500050F021E04F2D612FC4010E94F61861E069
:103460000E94AD19B82E8B2DDF91CF911F910F9136
:10347000FF90EF90DF90CF90BF90AF909F908F9094
:103480000895CF93DF93DC01062E000C770BE22F1B
:10349000220FFF0BCB018E1B9F0B12F480E090E0FC
:1034A000382F6E0F7F1F6D30710514F06CE070E0E7
:1034B000862F042E000C550BBA016E1B7F0B12F4E5
:1034C00060E070E0C62F4E0F5F1F4D30510514F0C5
:1034D0004CE050E08317CCF0DC2F5DE04C1784F01B
:1034E0009D2F3503B00111246A0F7B1F292F9D30BA
:1034F00080F43D3080F00DC091E0920F4917B4F791
:103500003F5F83175CF780E00FC080E00DC081E073
:103510000BC00E947837FB01E90FF11D97FDFA956A
:103520009481992349F3F3CFDF91CF910895AF921E
:10353000BF92CF92DF92EF92FF920F931F93CF93A0
:10354000DF935C01D62F142FF22EF194C1E02F3FB0
:1035500009F0C0E0CC2EEF2C01E020E0412F6D2FD0
:10356000C5010E946F1961E00E94AD1920E0412F52
:103570006D2FC5010E946F1961E00E94AD19D82E10
:1035800000E021E0412F6D2FC5010E946F1961E01D
:103590000E94AD198D1550F021E0412F6D2FC5010E
:1035A0000E946F1961E00E94AD19D82ECC2EEF2C2D
:1035B00001E021E0412F6D2FC5010E946F1961E0EC
:1035C0000E94AD198D1550F021E0412F6D2FC501DE
:1035D0000E946F1961E00E94AD19D82ECC2EEF2CFD
:1035E0000FEF21E0412F6D2FC5010E946F1961E09F
:1035F0000E94AD198D1550F021E0412F6D2FC501AE
:103600000E946F1961E00E94AD19D82E8D2DDF91B7
:10361000CF911F910F91FF90EF90DF90CF90BF90CF
:10362000AF900895AF92BF92CF92DF92EF92FF9248
:103630000F931F93CF93DF935C01D62F6C0184E02F
:10364000C80ED11CF12CE12C8601C0E002C0CC23B5
:10365000FCF0F80181918F01D8130FC02D2F4C2F52
:103660006F2DC5010E94971A8E1538F02D2F4C2F03
:103670006F2DC5010E94971AE82ECF5FCD3039F724
:10368000F394FDE0CF0ED11C8DE0F812DDCF02C027
:103690000E9478378E2DDF91CF911F910F91FF906F
:1036A000EF90DF90CF90BF90AF9008952F923F9210
:1036B0004F925F926F927F928F929F92AF92BF9242
:1036C000CF92DF92EF92FF920F931F93CF93DF93EE
:1036D000CDB7DEB7A6970FB6F894DEBF0FBECDBF4D
:1036E0004C01D62E19012A01EF8AF88E098F1A8F04
:1036F000C8A2DC0111968C91811107C019821A822F
:103700001B821C821D821E82C4C36111A3C2F401EC
:103710003496FBA3EAA3FCEFFB8F21E02F8B1D8ED9
:103720001C8E1D861E861F86188A4AA15BA15A8B95
:10373000498B0CEF0F2EF5E0BF2EF02D212C312CF4
:10374000A12CEDE0AC8DBD8DEA9FC001EB9F900DEB
:1037500011249401280F391F3F8F2E8F3C8D39A3E0
:103760001F891C5FD02EC12E05C0B394D394AA200C
:103770000CF47FC33C8A2B8AA989BA898D91BA8BB4
:10378000A98BBFEF2B1A3B0A81113BC269C3AC0165
:10379000440F551F840F951FA701440F551FE40EBA
:1037A000F51E2D30A0F4EC8DED3088F4FB01E20F16
:1037B000F11D27FDFA954481042E000C550B01964E
:1037C000840F951FFFEFEF1AFF0AE41AF50A2F5F27
:1037D0002113DDCF9C01220F331F820F931F02960E
:1037E0009701220F331FE20EF31E22E0E20EF11CBE
:1037F000022D222D6E8D7F8DAC01440F551F840F3D
:10380000951FA701440F551FE40EF51E2D30A0F49F
:103810003C8D3D3088F4FB01E20FF11D27FDFA9548
:103820004481042E000C550B0196840F951FAFEFB9
:10383000EA1AFA0AE41AF50A2F5F2B11DDCF61E0CC
:103840000E94AD19B4E08B9FC0011124FC01EB5E16
:10385000FE4F408051806280738061E0C7010E940A
:10386000AD19E4E08E9FC0011124FC01EB5EFE4F18
:1038700080819181A281B381481A590A6A0A7B0A20
:103880002D853E854F855889240D351D461D571DB4
:103890002D873E874F87588B4B8D20E030E080E0AE
:1038A00090E0AB89BC8959A1BC01660F771F860FD8
:1038B000971FB901660F771F260F371F4D30A8F4E9
:1038C0001D3098F46DE04603F0011124E80DF91D58
:1038D000EA0FFB1F6481062E000C770B0196860F02
:1038E000971F2F5F3F4F261B370B4F5F4513DCCFD2
:1038F000AC01440F551F840F951F02967901EE0C01
:10390000FF1CE20EF31EA2E0EA0EF11C3F896B8958
:103910007C89AC01440F551F840F951FA701440FEC
:10392000551FE40EF51E3D30B0F41D30A0F42DE01F
:103930003203F0011124E80DF91DE60FF71F448151
:10394000042E000C550B0196840F951FAFEFEA1A59
:10395000FA0AE41AF50A3F5F3C11DBCF61E00E94EE
:10396000AD19B4E08B9FC0011124FC01EB5EFE4F4A
:10397000408051806280738061E0C7010E94AD1970
:10398000E4E08E9FC0011124FC01EB5EFE4F8081BC
:103990009181A281B381481A590A6A0A7B0A2D854E
:1039A0003E854F855889240D351D461D571D2D8791
:1039B0003E874F87588B5B8D4D2D20E030E080E0B7
:1039C00090E0BC01660F771F860F971FB901660F45
:1039D000771F260F371F4D30B8F45D30A8F46DE027
:1039E0005603F0011124E80DF91DE40FF11D47FD08
:1039F000FA956481062E000C770B0196860F971FAF
:103A00002F5F3F4F261B370B4F5F5F5F4113D9CFAF
:103A1000AC01440F551F840F951F02967901EE0CDF
:103A2000FF1CE20EF31EA2E0EA0EF11C3F89AC017E
:103A3000440F551F840F951FA701440F551FE40E17
:103A4000F51E0D30C0F43D30B0F42DE03203F0012E
:103A50001124E80DF91DE00FF11D07FDFA954481D1
:103A6000042E000C550B0196840F951F6FEFE61A7C
:103A7000F60AE41AF50A0F5F3F5F0B11D8CF61E039
:103A80000E94AD19A4E08A9FC0011124FC01EB5EE5
:103A9000FE4F408051806280738061E0C7010E94C8
:103AA000AD19B4E08B9FC0011124FC01EB5EFE4F09
:103AB00080819181A281B381481A590A6A0A7B0ADE
:103AC0002D853E854F855889240D351D461D571D72
:103AD0002D873E874F87588B44E0410F5B8D20E058
:103AE00030E080E090E0BC01660F771F860F971FE3
:103AF000B901660F771F260F371F4D30B8F45D30C0
:103B0000A8F46DE05603F0011124E80DF91DE40F4F
:103B1000F11D47FDFA956481062E000C770B019686
:103B2000860F971F2F5F3F4F261B370B41505F5F5C
:103B30004113D9CFAC01440F551F840F951F029636
:103B40007901EE0CFF1CE20EF31EA2E0EA0EF11C5E
:103B50003FEF310F15504F89BC01660F771F860F5D
:103B6000971FB701660F771FE60EF71E3D30C0F4B2
:103B70004D30B0F42DE04203F0011124E80DF91DA1
:103B8000E30FF11D37FDFA956481062E000C770BCB
:103B90000196860F971F5FEFE51AF50AE61AF70AF6
:103BA00031504F5F1313D8CF61E00E94AD1964E02C
:103BB000869FC0011124FC01EB5EFE4F40805180C6
:103BC0006280738061E0C7010E94AD19A4E08A9F02
:103BD000C0011124FC01EB5EFE4F80819181A28126
:103BE000B381481A590A6A0A7B0A2D853E854F859A
:103BF0005889240D351D461D571D2D873E874F873B
:103C0000588BA3943DE0A312B0CD4C8D5D8D4F5FDA
:103C10005F4F5D8F4C8F5F895F5F5F8B8AA19BA138
:103C20000D969BA38AA39B8D9F5F9B8F993009F074
:103C30007CCDE8A1AE2FEE0FBB0B2D853E854F85C9
:103C400058890E94393769837A838B839C831D82CC
:103C50001E821FC1F8A1F195FB8F6F2FC4010E9436
:103C6000121B0E94E918682E68A1C4010E94121B51
:103C700094012C5F3F4F3D8F2C8F712C19A21E8E0B
:103C800081E090E0A0E0B0E88B8B9C8BAD8BBE8B8D
:103C90002F89388D498D5A8D5095409530952195B5
:103CA0003F4F4F4F5F4F2AA33BA34CA35DA3DA9432
:103CB000DEA2698A7D86AC8CBD8CD12C06C03FEF1C
:103CC000A31AB30ADD200CF4D6C03501D5018C91BE
:103CD0008111A9C00E94E918B9898B17D0F408A1F5
:103CE0002B8D4D2D6D85C4010E94BF190E94E918CE
:103CF000E989E81710F10B8D28A14D2D6D85C401C0
:103D00000E94BF190E94E918F989F81708F08BC0C2
:103D100014C0D40113968C91BD858B1304C0F4019B
:103D20008281D81679F021E04D2D6D85C4010E9465
:103D3000411A882309F477C005C0D3018C91811101
:103D40000E94783728A1F3012083D40111968C9129
:103D5000811102C00E9478378150F4018183FCE018
:103D6000FD1508F494C02D852D3008F486C08FC051
:103D700088279927DC0182199309A409B509CB8CFE
:103D80007C018D012AA13BA14CA15DA16EA1C401C2
:103D90000E94561B2F83388749875A878F819885C1
:103DA000A985BA85B095A095909581959F4FAF4F05
:103DB000BF4F04C080E091EEA5EFB5E0F301208194
:103DC000211102C00E947837F3011082F401218191
:103DD0002F5F21832B893C894D895E8928173907FC
:103DE0004A075B073CF4D9A23D853E8F8B8B9C8BA9
:103DF000AD8BBE8B281639064A065B0614F41C01EF
:103E00002D018F89988DA98DBA8D281639064A06FD
:103E10005B064CF029823A824B825C829E8D9D83A8
:103E2000A9A1AE8336C0D394BDE0DB1248CFED85A7
:103E3000EF5FED872C8D3D8D235F3F4F3D8F2C8FA6
:103E4000ED3009F038CF8B899C89AD89BE89898393
:103E50009A83AB83BC839E8D9D83A9A1AE8319C039
:103E60001A2D2D2DE12CF12C80E090E06E8D7F8DB0
:103E70008ECC0E9478370E94783728A14D2D6D8511
:103E8000C4010E94971A863009F494CF71CF0E9422
:103E9000783729813A814B815C816D817E8180E018
:103EA00090E0A6960FB6F894DEBF0FBECDBFDF91AF
:103EB000CF911F910F91FF90EF90DF90CF90BF9027
:103EC000AF909F908F907F906F905F904F903F90BA
:103ED0002F9008950E947837CF93DF93CDB7DEB748
:103EE00061970FB6F894DEBF0FBECDBF789484B54E
:103EF000826084BD84B5816084BD85B5826085BDE6
:103F000085B5816085BDEEE6F0E0808181608083CB
:103F1000E1E8F0E0108280818260808380818160AE
:103F20008083E0E8F0E0808181608083E1E9F0E077
:103F3000808182608083808181608083E0E9F0E01D
:103F4000808181608083E1ECF0E080818460808307
:103F5000808182608083808181608083E3ECF0E0F7
:103F6000808181608083E0ECF0E0808182608083EA
:103F7000E2ECF0E0808181608083EAE7F0E080811C
:103F8000846080838081826080838081816080837F
:103F90008081806880831092C0011092BF011092CE
:103FA000BE01E7EDF0E080818160808380EA80934C
:103FB000D80089B5806189BD89B5826089BD09B4A1
:103FC00000FEFDCF61E070E080E090E00E943A2AC0
:103FD000E8EDF0E080818F7C80618083E0EEF0E0AE
:103FE0008081807F8083E1EEF0E080818E7E80831F
:103FF0008DE08093E200559A209A81EC80937C00BA
:1040000085B1806F85B984B1877E84B984B1876EAC
:1040100084B95E9A5F988AB1806D8AB9769A6E98F3
:1040200081B3806F81BB899880B38D7080BB80E540
:104030008CBD81E08DBD85E090E00E94742F5F9A79
:1040400085E090E00E94742F5E985C98E4E3F7E2CC
:1040500021E437E284918EBD00000DB407FEFDCF50
:104060003196E217F307B1F75C9A81E88093640018
:10407000E5E6F0E080818160808360E088EC91E09B
:104080000E94AA2F0E947A2F8823BCF45C9885EAAC
:104090008EBD00000DB407FEFDCF5C9A40E060E0ED
:1040A00080E00E949A2FE4E6F0E0808180628083C5
:1040B00081E083BF889513BEFCCF0E947A2F82FFD8
:1040C00017C060E089E00E94822F2FEF4BE064E888
:1040D0008EED95E00E948C3120E04AE064E18EEDA7
:1040E00095E00E948C3188EC90E00E94742FE5CF1F
:1040F00061E089E00E94822F82E090E00E94F93620
:10410000882319F03E9A3F9A02C03E983F9881E07A
:1041100090E00E94F93681FF6CC0282F2470D22EC7
:1041200082FFDDC360E08AE00E94822FD8C30F5F68
:104130001F4F8FEFE81AF80A67010E947A2F86FF57
:1041400006C041E061E081E00E949A2F52C0BB208E
:10415000F9F094E0E916F104D9F461E08AE00E94F4
:10416000822F60E08BE00E94822F61E088EC91E07A
:104170000E94AA2F84E090E00E949C2B60E088ECD3
:1041800091E00E94AA2F8FE090E00E94742FCFCF81
:1041900061E088EC91E00E94AA2FC6010E949C2B4E
:1041A00060E088EC91E00E94AA2F8FE090E00E94EE
:1041B000742F093111050CF4BACFBB2041F061E036
:1041C0008BE00E94822F60E089E00E94822F80E9CC
:1041D00091E00E94742F61E089E00E94822FE091BB
:1041E000DE05F091DF050190F081E02D8EED95E088
:1041F000099582E390E00E94742F0E947A2F81112A
:10420000F8CF84E68093E505E4E6F0E080818E7FD8
:104210008083EAE7F0E0808180648083808186FD8E
:10422000FDCF00917800109179000E94452C20E08C
:1042300030E0980111270027600F711F821F931F24
:10424000E4E6F0E02081216020836115710581059D
:10425000910511F00E94F0360E941E330F2EFAEDE8
:104260008F2EF5E09F2EF02D8E869F86E8ECF1E0F4
:104270006E2EFD878FB7F8944091C1015091C20115
:104280006091C3017091C4018FBFF4018485F42F44
:10429000F81B8F2FF4019585992319F086871586D1
:1042A00016C3F4019385891748F48F5F891708F0C6
:1042B0000EC381E083BF889513BE09C381E0F4017A
:1042C000858744878781908501969087878381853C
:1042D00082870E947A2FF401818780E0E8ECF1E088
:1042E00081118FEF002481938193819381930394B3
:1042F000D1F7F401128A118A108A17868091C805B5
:104300009091C9058B30910508F0DCC2FC01EA5A96
:10431000FF4F0C9472376894CC24C1F8E12C00E074
:1043200010E020E041E457E261E070E080E090E0DE
:104330000E94B52C09E310E0F401108B078784E19B
:1043400090E0928B818B6CE471E08E859F850E945A
:10435000242AF401108B07878EE190E0928B818BE9
:1043600069E571E08E859F850E94242AF401108BF7
:10437000078788E290E0928B818B66E671E08E85FC
:104380009F850E94242A8091C5019091C6018130A9
:10439000910541F08230910541F0892B49F424E1E7
:1043A00030E008C02EE130E005C028E230E002C075
:1043B00020E030E081E390E0F401908B8787328B3E
:1043C000218B67EB71E08E859F850E94242A60E82F
:1043D0008EED95E00E94C42F8823C1F08091C50125
:1043E0009091C60101972AF09093C6018093C50170
:1043F0000DC0F2E0F093C5011092C60160E18EEDB0
:1044000095E00E94C42F811113C0B5C260E18EED0A
:1044100095E00E94C42F8823A1F08091C50190915E
:10442000C60101969093C6018093C50103974CF095
:104430001092C6011092C5010E941833811113C059
:1044400041C20E941833882309F43CC28091C501FF
:104450009091C6018130910589F082309105D1F0AB
:10446000892B09F02FC286E090E09093C9058093D4
:10447000C8051092CB051092CA0524C2E6E0F0E010
:10448000F093C905E093C805F1E0F093CA051092D6
:10449000CB0518C221E02093C8051092C90512C2AD
:1044A0000E9477330E94093280E00E943E340E94CD
:1044B00050338091C701811105C200910201109112
:1044C00000010D3008F015C21D3008F414C211C2ED
:1044D0000E941833882309F4F5C1A090C805B09054
:1044E000C90581E0A816B10431F441E0602F812FA5
:1044F0000E94BF3145C292E0A916B10411F00E949A
:1045000078374FEF602F812F0E94BF3139C2AA94B4
:10451000AB2819F094E080E002C093E080E0909333
:10452000C8058093C905CEC1AA94AB2819F091E0C3
:1045300080E002C092E080E09093C8058093C905B6
:1045400080919C068111BEC185E090E09093C905E1
:104550008093C805B7C10E94773380E00E943E3443
:104560008091C7018111AEC10091C8051091C905A4
:10457000C8010197029708F4A5C10E946632033072
:10458000110529F48FE691E00E94B33211C0043086
:10459000110529F48DE791E00E94B33209C005307E
:1045A000110511F00E9478378BE891E00E94B33238
:1045B0000E941833882309F485C11092C90510920E
:1045C000C8050E941E337EC18630910509F053C094
:1045D00081E00E943E348091C70181113EC000916C
:1045E0000201109100010D3008F099C11D3008F44E
:1045F00098C195C10E941833882379F141E0602F5A
:10460000812F0E94BF318DE08C9DF0018D9DF00DBA
:104610001124E556F94FEE0DFF1D2481402F612F27
:104620008BE996E00E94971A863039F4E8E0F0E0D2
:10463000F093C905E093C80510C087E090E090931F
:10464000C9058093C80580919C06811106C0EAE0E7
:10465000F0E0F093C905E093C8050E9477330E940B
:1046600009328091C8059091C905069709F02AC1C1
:104670000E94503327C1079711F00E94783780912C
:10468000CA059091CB05009709F08DC00E94A23613
:1046900025E630E040E050E00E940F3765317105BB
:1046A000810591050CF066C080919C06882309F471
:1046B0007DC10FE916E0D12CC12C712CA12CB12C9D
:1046C0002801272C998A888A362C720110E003C0B1
:1046D0001F5F0AF43AC1012FF70181917F01811117
:1046E0003AC021E0412F6D2D8BE996E00E94411ADE
:1046F000882389F1F2E0AF16B10414F1C5010296E6
:10470000092E000CAA0BBB0B82309105A105B10547
:10471000CCF03C014D0121E0621A7108810891083A
:1047200099F00E94A236A40193010E940F37DC0188
:10473000CB010196A11DB11D029744F42D2C07C099
:104740002D2C05C02D2C03C02D2C01C00C2D8FEF5E
:10475000A81AB80AC02E1C3009F0BACFD3949DE035
:10476000490E511CEDE0DE12B0CF722C888899887A
:10477000632C34C0CC24CA94EE24EA94FE2C0FEFB0
:104780001FE721E030E040E050E861E08BE996E08F
:104790000E94561B29833A834B835C836D837E83FF
:1047A000762EC72E1BC0019709F0D1C0CC24CA9425
:1047B000EE24EA94FE2C0FEF1FE721E030E040E00A
:1047C00050E861E08BE996E00E94561B2F83388702
:1047D00049875A876B877C87762EC72E4FEF6C2DC3
:1047E000872D0E94BF31472D072C000C550B50938D
:1047F0000101409300018C2D0C2C000C990B90931F
:10480000030180930201FCE0FC1518F02CE0271551
:1048100010F40E9478376DE0649F9001659F300D21
:1048200011242556394FF901E80FF91F24814C2D29
:10483000672D8BE996E00E94971A863039F489E05B
:1048400090E09093C9058093C8053CC0E6E0F0E095
:10485000F093C905E093C80535C00E94773381E025
:104860000E943E348091C70181112CC00091C8057F
:104870001091C9050630110529F10E9466320830F1
:10488000110529F489E991E00E94B33211C0093081
:10489000110529F488EA91E00E94B33209C00A3078
:1048A000110511F00E9478378BE891E00E94B33235
:1048B0000E941833882331F01092C9051092C80560
:1048C0000E941E3360E0862D9D850E94AA2F80E005
:1048D00090E0892B09F4CECC0E940000CBCC0F2EA7
:1048E000F1EFEF2EFF24FA94F02D02EF1FEFBD2C15
:1048F00023CC0E947837E02E002E000CFF08C12E3A
:10490000012E000CDD08F7012DE01202E00DF11D73
:104910001124E556F94F84818111D4CFD9CD0E945D
:104920007837E02E002E000CFF08C12E012E000C5F
:10493000DD08F7018DE01802E00DF11D1124E556A8
:10494000F94F8481811189CE55CE0E9478374FEF7F
:1049500060E080E00E94BF311092010110920001DE
:10496000109203011092020180E090E040E050E0DC
:10497000C12C712C50CF0E94183381118BCDA2CF46
:104980002DE02C9DC0012D9D900D11248556994F31
:10499000FC01EE0DFF1D2481402F612F8BE996E075
:1049A0000E94971A863009F4B2CDBECD4FEF60E079
:1049B00080E00E94BF31109201011092000110921C
:1049C00003011092020180E090E040E050E0C12C31
:1049D000712C1CCF4091CE055091CF052091CC0574
:1049E0003091CD0542175307BCF4E8EEF0E090811A
:1049F0009570E9F39091E80092FD19C08093F10061
:104A00008091CE059091CF0501968F739927892BC0
:104A100019F48EEF8093E8008091CE059091CF0538
:104A200001969093CF058093CE0581E0089580E0B4
:104A30000895CF92DF92EF92FF920F931F93CF933F
:104A4000DF936C01C62FD42F862F880F8E5F0E94B4
:104A5000EA2483E00E94EA24CC23F1F08601C150CD
:104A6000EC2EF12C8FEFE81AF80AEC0CFD1CDD237C
:104A70001CF4F801849102C0F80180810E94EA24AC
:104A8000C82F80E00E94EA248C2339F00F5F1F4F6B
:104A90000E151F0561F701C081E0DF91CF911F91D5
:104AA0000F91FF90EF90DF90CF900895CF92DF921B
:104AB000FF920F931F93CF93DF936A01F82E8B0120
:104AC000040F151FEB01C017D10771F0FF201CF474
:104AD000FE01849101C088810E94EA2421968111FF
:104AE000F2CF8FEF9FEF02C08C2D9D2DDF91CF91E4
:104AF0001F910F91FF90DF90CF9008952FB7F894FA
:104B000087708093E9009091E800892F807295FF6B
:104B100004C09091F20080E4891B2FBF0895CF93C9
:104B2000DF939091C001992359F1552364F13FB768
:104B3000F89487708093E900C091F200D0E04C17A0
:104B40005D070CF4EA018C2F8150CC2361F0E62F35
:104B5000F72F24E6A1EFB0E028982093D1059C918F
:104B600091938150C8F7209739F08091F20081111C
:104B700003C08BE68093E8003FBF8C2F9D2F05C0BC
:104B80008FEF9FEF02C08FEF9FEFDF91CF910895DE
:104B9000CF92DF92EF92FF920F931F93CF93DF9309
:104BA00041155105C1F06A018C01E62EF72EC0E0D7
:104BB000D0E0D7016D917D01D801ED91FC9101907C
:104BC000F081E02DC8010995892B39F02196CC168A
:104BD000DD0679F702C0C0E0D0E0CE01DF91CF91D1
:104BE0001F910F91FF90EF90DF90CF900895CF939A
:104BF000DF931F92CDB7DEB76983DC01ED91FC91A5
:104C00000280F381E02D41E050E0BE016F5F7F4FF5
:104C100009950F90DF91CF91089583E08093E9008B
:104C20008091F200882319F08AE38093E8000895C8
:104C300083E00E947E2590E00895CF93DF931F923A
:104C4000CDB7DEB7FC018485958599232CF02FEF35
:104C50003FEF358724870FC041E050E0BE016F5F12
:104C60007F4F82E00E948F25019719F4898190E09F
:104C700002C08FEF9FEF0F90DF91CF9108950F93B8
:104C80001F93CF93DF931F92CDB7DEB78C01FC014A
:104C900084859585992394F441E050E0BE016F5FCF
:104CA0007F4F82E00E948F25019719F4898190E05F
:104CB00002C08FEF9FEFF80195878487F801848504
:104CC00095850F90DF91CF911F910F910895FC0171
:104CD0008485958599235CF09FB7F89482E0809352
:104CE000E9008091F2009FBF90E0019608959FB780
:104CF000F89482E08093E9008091F2009FBF90E0F9
:104D000008950F931F93CF93DF931F92CDB7DEB714
:104D100082E0898342E450E063E47BE280E80E9421
:104D200056250E940136DC0112960D911C911397B5
:104D30000115110599F0D801ED91FC910280F381E4
:104D4000E02DBE016F5F7F4FC8010995992334F0B4
:104D5000F801008511850115110569F789810F900A
:104D6000DF91CF911F910F9108951F920F920FB66F
:104D70000F9211248F939F93EF93FF93E1EEF0E056
:104D800080819081937F908383FF0FC01092E90010
:104D900091E09093EB001092EC0092E39093ED0081
:104DA0001092C00198E09093F00082FF22C093E03F
:104DB0009093E9009091F200992319F09AE390936F
:104DC000E8009091D205992341F09091D20591503D
:104DD0009093D205911101C05D9A9091D1059923CC
:104DE00041F09091D10591509093D105911101C05E
:104DF000289A84FF12C0E2EEF0E080818E7E81600E
:104E00008083E1EEF0E080818F7E80838091BE011F
:104E10008E7E80618093BE0113C080FF11C0E2EEE0
:104E2000F0E080818E7E80618083E1EEF0E0808121
:104E30008E7E80838091BE018E7E81608093BE01D4
:104E4000FF91EF919F918F910F900FBE0F901F9048
:104E500018951F920F920FB60F921124EF92FF92A6
:104E60000F931F932F933F934F935F936F937F9372
:104E70008F939F93AF93BF93EF93FF93CF93DF9362
:104E8000CDB7DEB76C97DEBFCDBF1092E900809141
:104E9000E80083FF51C2FE013196A1EFB0E09E0110
:104EA000275F3F4F8C9180833196E217F307D1F74C
:104EB000289884E68093D10582EF8093E800998159
:104EC000992334F4E8EEF0E0808180FFFDCF03C049
:104ED0008EEF8093E800892F807609F038C18A81AF
:104EE00081110EC0903839F48091BF01E1EFF0E0FC
:104EF00080831082F3C1E1EFF0E010821082EEC1F6
:104F00004B81FC80242F30E03F29813061F49111E6
:104F1000E5C12130310509F0E1C18091BF018D7FEC
:104F20008093BF01DBC1833061F49111D7C121307F
:104F3000310509F0D3C18091BF0182608093BF0128
:104F4000CDC1853049F4E8EEF0E0808180FFFDCFEF
:104F500040684093E300C2C1863009F0B6C022E049
:104F6000F2123DC0EF80F88409EE10E0D8011C92E7
:104F70001092CF051092CE051092CD051092CC055F
:104F80000E94812699E0BE01675F7F4FFB01292FB8
:104F900011922A95E9F7998792E09A8791E09E8786
:104FA00090EA988B9AEF998B2091CE053091CF059E
:104FB000275F3F4F3C872B878D87D8011C9210922B
:104FC000CF051092CE05F092CD05E092CC0549E0D8
:104FD00050E080E00E9456250E9481267FC18F818B
:104FE00098851092E9001092CF051092CE0590930B
:104FF000CD058093CC050E940136FC01028113810E
:105000000115110509F478C1D801ED91FC910480D6
:10501000F581E02DBE016F5F7F4FC80109950097B4
:1050200009F064C1F801008511850115110561F7CA
:1050300063C1F3E0FF1256C18B81882309F462C17A
:10504000823041F440E860E187EA9BE20E94192542
:10505000282F42C1813041F440E86BE08BE99BE2AC
:105060000E941925282F38C1833009F03BC10E94C6
:105070000136DC0112960D911C9113977E01B9E067
:10508000EB0EF11C0115110579F0D801ED91FC91A1
:105090000680F781E02DB701C8010995E80EF11CE3
:1050A000F80100851185EECFD7011C92CE0109963B
:1050B000FC0101900020E9F73197BF01681B790BD3
:1050C00040E00E941925282F07C1873009F40AC142
:1050D000883021F481E08093F10000C1893009F02B
:1050E000FDC0937009F0FEC081E08093E9008093D9
:1050F000EB0081EC8093EC0086E38093ED00E3E32A
:10510000F1E082E009EE10E06BEE70E031E04CEE91
:1051100050E00F2EFDEEEF2EF12CF02D26E39081C6
:10512000992361F0D8018C93DB013C939191DA01D2
:105130009C93D7012C938F5F873089F7EAEEF0E0DC
:105140008EE7808310828B818093C001C7C08F81DE
:1051500098851092E9001092CF051092CE05909399
:10516000CD058093CC058D81811198C09A8189816C
:10517000813A59F4913209F0B5C047E050E068E057
:1051800071E080E00E945625A9C0813209F0AAC0D2
:10519000933209F0C0C08C8190E0982F88272B8132
:1051A000822BA0E0B0E08093040190930501A093CE
:1051B0000601B093070192C0E8EEF0E0808182FF23
:1051C000FDCFE8E0F1E0A1EFB0E08C918083319673
:1051D00021E0EF30F207C9F7289884E68093D105E3
:1051E0008BEF8093E8007AC0923209F077C08B8110
:1051F00080930F01EEEFFFE7859194918B3F9C4DDB
:1052000019F4EEEFFAE002C0E0E0F8E08091080166
:1052100090910901A0910A01B0910B01803B94404B
:10522000A105B10509F081C080910F0180FF77C011
:105230007CC080819181873747E7940721F0909364
:10524000FF0A8093FE0A87E797E791838083809126
:1052500060008093D0059BE088E10FB6F894A89594
:10526000809360000FBE9093600038C0A895A0E6C0
:10527000B0E08C9188618C938091D0058C93EE3F47
:10528000FA4041F08091FE0A9091FF0AD9018D9376
:105290009C9324C0F9011182108220C00E94013623
:1052A000DC0112960D911C91139701151105D1F097
:1052B000D801ED91FC910190F081E02DBE016F5F6E
:1052C0007F4FC8010995811109C0F801008511853A
:1052D0000115110569F706C0222321F08EEF809396
:1052E000E8002AC081E28093EB0026C021E0181676
:1052F000190694F320E0F0CFF1E0FF129ACE69E8AE
:105300007BE202C065E87BE2FB01449150E080E86B
:105310000E945625E3CF903209F066CF4DCFEE3F85
:105320002AE0F20709F085CF8ECF9F01808191811D
:105330008737974799F69ACF6C960FB6F894DEBFE9
:105340000FBECDBFDF91CF91FF91EF91BF91AF9194
:105350009F918F917F916F915F914F913F912F918D
:105360001F910F91FF90EF900F900FBE0F901F9025
:1053700018958F929F92AF92BF92EF92FF920F93E8
:105380001F93CF93DF93CDB7DEB7A1970FB6F894F5
:10539000DEBF0FBECDBF7C01CB01BA0121153105A7
:1053A00049F4D701ED91FC910190F081E02DC70106
:1053B000099539C019A2223008F42AE08E010F5D48
:1053C0001F4F822E912CA12CB12CA50194010E947B
:1053D0004137E62F622F732F842F952F015011092B
:1053E000EA3014F4E05D01C0E95CD801EC9361158A
:1053F00071058105910549F70115110591F0F80135
:1054000001900020E9F73197AF01401B510BD70104
:10541000ED91FC910280F381E02DB801C70109955F
:1054200002C080E090E0A1960FB6F894DEBF0FBEF8
:10543000CDBFDF91CF911F910F91FF90EF90BF9063
:10544000AF909F908F9008956115710581F0FB01D9
:1054500001900020E9F73197AF01461B570BDC01A3
:10546000ED91FC910280F381E02D0995089580E093
:1054700090E008958F929F92AF92BF92CF92DF9269
:10548000EF92FF926B017C010E94452C4B015C0165
:10549000C114D104E104F10489F422C021E0C21A4C
:1054A000D108E108F10888EE880E83E0981EA11C5F
:1054B000B11CC114D104E104F10491F00E94452C07
:1054C000DC01CB0188199909AA09BB09883E9340E0
:1054D000A105B10518F7C114D104E104F10471F775
:1054E000FF90EF90DF90CF90BF90AF909F908F9004
:1054F00008952F923F924F925F926F927F928F9278
:105500009F92AF92BF92CF92DF92EF92FF920F9352
:105510001F93CF93DF9300D000D0CDB7DEB74C01FF
:105520006B01442E552E80910F01882309F48FC002
:1055300049835A838091C001882309F47EC08091F9
:10554000BE0180FF05C0E0EEF0E0808182608083D4
:105550004B825C82612C0F2EFAEF7F2EF02D0F2EE6
:10556000F9EEAF2EB12CF02D0F2EF8EEEF2EF12C20
:10557000F02D0F2EFAE33F2EF02D212C01EF10E03D
:105580004B815C81452B19F4662009F44DC083E002
:105590000E947E2581110BC07A94772009F44DC0BA
:1055A00061E070E080E090E00E943A2AE9CF282F85
:1055B00030E0AB81BC81A217B3070CF48B812FB70D
:1055C000F89493E0F5019083D7019C9195FF2AC050
:1055D000EB81FC81E81BF109FC83EB833FEF380F83
:1055E000882361F0F601832F9191D8019C9381501B
:1055F000D8F7832F90E00196C80ED91E662021F0BF
:10560000F7013082622C0CC0D7018C9185FD08C057
:105610003C9266246394EB81FC81EF2B09F0622CB1
:105620002FBFAECF2FBFACCF5D9884E68093D2055D
:1056300049815A811416150694F081E090E0D40156
:1056400013969C938E93129780E090E00AC081E0BD
:1056500090E0F4019383828380E090E002C0842D87
:10566000952D0F900F900F900F90DF91CF911F917C
:105670000F91FF90EF90DF90CF90BF90AF909F90F1
:105680008F907F906F905F904F903F902F900895F4
:105690000F934034510508F04CC0CB01820F911D8F
:1056A000181619060CF045C0603871050CF041C0A1
:1056B000772314F460E070E08138910514F080E8FD
:1056C00090E0861BFA0155230CF43796F595E79583
:1056D000F595E795F595E795F695FE2FEE27F79565
:1056E000E7956E0F7F1F68537E4F4770552721E067
:1056F00030E002C0220F331F4A95E2F7422F002309
:1057000069F00130B1F49FEF980F882391F0FB010D
:105710008081842B81939150D8F70BC020959FEF07
:10572000980F882331F0FB0180818223819391506F
:10573000D8F70F9108950895AF92BF92CF92DF925C
:10574000EF92FF920F931F93CF93DF939C01205F03
:105750003F4F121613060CF08DC0803491050CF0EB
:1057600089C0AC01992324F444275527481B590BC1
:1057700047705078552334F441505109486F5F6F9A
:105780004F5F5F4F9C01992314F4295F3F4F35957C
:1057900027953595279535952795992344F42150DC
:1057A000310988E090E0BC01641B750BAB01283027
:1057B00031050CF05FC069017FEFC71AD70AD69494
:1057C000DC2CCC24D794C794E12CF12C88E090E019
:1057D0005C01A41AB50A0CC02F5F3F4F88E5E80EA4
:1057E000F11C60E8C60ED11C2830310509F442C016
:1057F0002F3F7FEF37070CF438C0F701E854F44D22
:10580000D601A452BE4FE601C45ADE4F8701005FA5
:10581000134DB60168537E4F01C01196CD01861B12
:10582000970BF2F033235CF0849190E0042E02C0D9
:10583000880F991F0A94E2F79881892B8883411574
:10584000510571F0273031055CF4849190E00A2C09
:1058500002C0959587950A94E2F79C91892B8C93C9
:1058600031962196E017F107C1F688E5E816F104B4
:1058700009F0B2CFDF91CF911F910F91FF90EF9080
:10588000DF90CF90BF90AF9008953FB7F89480918C
:10589000D4059091D505A091D605B091D70526B530
:1058A000A89B05C02F3F19F00196A11DB11D3FBF58
:1058B000BA2FA92F982F8827820F911DA11DB11DE6
:1058C000BC01CD01660F771F881F991F660F771FD8
:1058D000881F991F08951F920F920FB60F921124DF
:1058E0002F933F938F939F93AF93BF938091C10169
:1058F0009091C201A091C301B091C4013091D30530
:1059000023E0230F2D3720F40196A11DB11D05C002
:1059100026E8230F0296A11DB11D2093D305809385
:10592000C1019093C201A093C301B093C4018091BF
:10593000D4059091D505A091D605B091D7050196D3
:10594000A11DB11D8093D4059093D505A093D605D4
:10595000B093D705BF91AF919F918F913F912F91B8
:105960000F900FBE0F901F9018952F923F924F925D
:105970005F926F927F928F929F92AF92BF92CF92DF
:10598000DF92EF92FF920F931F93CF93DF9300D09C
:1059900000D01F92CDB7DEB73C01BC2D411551059B
:1059A00009F48AC2FA0184903196E4914E5F5F4F08
:1059B000211102C0EE2069F181E090E09B838A838F
:1059C0009E2F977011F41B821A828E2F86958695D2
:1059D0008695CA80DB80C80ED11CC601889E6001F6
:1059E000899ED00C1124B33019F4CC0CDD1C0AC0F4
:1059F0000115110539F0EC9CC001ED9C900D1124AE
:105A0000080F191F2C9DC0012D9D900D1124480FCA
:105A1000591FBF3F31F40115110511F0B1E001C06C
:105A2000B2E0282C312C7101E60CF71C1E141F0467
:105A30000CF042C290E8691671040CF03DC2CB0133
:105A40008E0F911D181619060CF036C260347105C0
:105A50000CF032C24115510509F42EC2F62FF77031
:105A60009F2ECB0177230CF407969C013595279543
:105A70003595279535952795822F772324F419148A
:105A800014F48FEF820F77204CF4B301772024F4C5
:105A900066277727661977099B0102C020E030E06E
:105AA00060E8E616F1042CF090E8892E8618821A38
:105AB00001C0821A8F3F64F4682F082E000C770B08
:105AC00077231CF4719561957109AFEFA60F01C0A2
:105AD000A0E071E09E2F977009F470E0E695E695DE
:105AE000E695D72EDE0EED2DF0E0E80FF11D87FDD7
:105AF000FA9539971CF098E0D92ED81ADA1AB82EF0
:105B0000BA0E9B2D7B2D60E87603600C711C11246E
:105B1000620E731EA29DF001A39DF00D1124BF0122
:105B2000620F731F460F571F21E030E02901092C37
:105B300002C0440C551C0A94E2F7B33009F478C152
:105B400030F4B13009F405C1B23061F0B5C1BA3FEB
:105B500031F0BB3F09F0B0C1D110ADC0ADC1D11023
:105B60005FC0AAC17201FF247FEF479E90011124FC
:105B700020953095DD2009F49FC18D2D8B0DCC240F
:105B8000CA94C80CD12CEFEFCE1ADE0AA82DB0E0D3
:105B9000B1016A1B7B0BE0E8F0E05F01AA1ABB0AC7
:105BA000332E882099F1F301E85BFD4FFB83EA83F4
:105BB000D301A853BE4F8A010C0D1D1DFA0124907C
:105BC0002E9C20012F9C500C1124992324F0EC9141
:105BD000E223E429EC93992059F097304CF4EA81C0
:105BE000FB814080E42DE3215E2AEA81FB81508223
:105BF0004F5F5F4FEA81FB813196FB83EA83119609
:105C000040175107D9F66C0C7D1C01C08A019F5FBB
:105C1000A801460F571F6A0C7B1C9813C2CF4CC1BA
:105C20008D2D8B0DEE24EA94E80CF12CFFEFEF1A8A
:105C3000FF0A92013327E82DF0E0B1016E1B7F0BC4
:105C4000A0E8B0E06D01CE1ADF0A882051F1F3011F
:105C5000E85BFD4F2F01D301A853BE4F8A010E0D03
:105C60001F1DFA013490329E5001339EB00C112456
:105C700099231CF0EC91EA29EC93992031F09730AC
:105C800024F4F201A080BA28B0824F5F5F4FFFEF8B
:105C90004F1A5F0A11960417150719F76E0C7F1C2F
:105CA00001C08A019F5FA801460F571F6C0C7D1C25
:105CB0009813CBCF01C18D2D8B0DEE24EA94E80C07
:105CC000F12C2FEFE21AF20A92013327E82DF0E0CF
:105CD000B1016E1B7F0BA0E8B0E06D01CE1ADF0AA8
:105CE000882069F1F301E85BFD4F2F01D301A85330
:105CF000BE4F8A010E0D1F1DFA013490329E5001D5
:105D0000339EB00C112499232CF0FC91EA2DE095E0
:105D1000EF23EC93992039F097302CF4B094F201F2
:105D2000A080BA20B0824F5F5F4FFFEF4F1A5F0A2B
:105D300011964017510701F76E0C7F1C01C08A01B4
:105D40009F5FA801460F571F6C0C7D1C9813C8CF8E
:105D5000B3C0060F171FDD2009F4AEC08D2D8B0DCB
:105D6000AA24AA94A80CB12C2FEFA21AB20A62019D
:105D7000DD24282D30E02101421A530A60E870E04A
:105D8000621B730B89831B01882009F444C0B30193
:105D9000685B7D4F7B836A83D301A853BE4F780134
:105DA000EA0CFB1CBA01F80184918C9D90018D9D39
:105DB000300D112420953095FB0184918C9DF001CC
:105DC0008D9DF00D1124FD83EC83992324F08C919B
:105DD00082238E2B8C93992059F097304CF4EA81D2
:105DE000FB8180818323FD818F2BEA81FB8180836E
:105DF0000F5F1F4F6F5F7F4F2A813B812F5F3F4FA8
:105E00003B832A8311960E151F0569F66A0C7B1CCD
:105E10004A0D5B1D01C078019F5F440D551D870130
:105E2000040D151D620C731C39819313ADCF44C052
:105E3000882D90E0FA01E60FF71FD301A853BE4F5B
:105E400040E850E0481B590BB101681B790B660F05
:105E5000771F382D2D2D1B2DCF93DF93ED01EF965E
:105E6000EF9622966590C590992059F0649C300178
:105E7000C49C600117302CF4F880D094FD20F728E2
:105E8000F99211233AF0FC90C094FC20F628FD9280
:105E90000C944B2F11963A9529F72A9551F0382DED
:105EA00013951124E60FF11DA40FB11DC40FD11DD0
:105EB000D9CFDF91CF9111240F900F900F900F90B9
:105EC0000F90DF91CF911F910F91FF90EF90DF9096
:105ED000CF90BF90AF909F908F907F906F905F908A
:105EE0004F903F902F900895BC0180E090E00E9479
:105EF0003A2A08958FB18095807F669B88601C9BAD
:105F0000846008958A3031F4662311F02E9A089542
:105F10002E9808958B3031F4662311F02F9A08954E
:105F20002F980895893029F4662311F02D9A089549
:105F30002D980895882311F02E9A01C02E9866237B
:105F400011F02F9A01C02F98442311F02D9A089533
:105F50002D980895DC01E0E0F8E00C900EBC611192
:105F6000012C3197E0FDFDCF0D92B9F70DB40895E6
:105F7000FC019681962331F08581682381E019F038
:105F800080E0089580E00895FC019681962331F425
:105F90008581682381E019F480E0089580E0089508
:105FA00080389105D0F460347105B8F490E121E0B7
:105FB00061FD24E060FD220F62FD2295687F969FBF
:105FC000D0011124A80FFD01E853FE4F8081822BE0
:105FD00040FF8227A853BE4F8C9308952F923F9283
:105FE0004F925F926F927F928F929F92AF92BF92E9
:105FF000CF92DF92EF92FF920F931F93CF93DF9395
:10600000CDB7DEB761970FB6F894DEBF0FBECDBF38
:10601000FC016A3069F425898189928938E0239FDF
:10602000800D911D1124928B818B108A1786DDC003
:106030006D3009F4DAC09A83898327853089203846
:1060400031050CF095C0418952895C874B874034FB
:1060500051050CF08DC05588852D90E0AC01440FA2
:10606000551F440F551F480F591F420F531F4150D2
:1060700051090AF47DC0880F991F880F991F880F56
:10608000991FAB85BC858A0F9B1F01970AF470C0CE
:10609000B489BF832388862F90E0AC01440F551F3D
:1060A000440F551F840F951F852C912C3C832B8307
:1060B000FC01E859F34DFE87ED871A868FEF850DB9
:1060C00090E09C012F5F3F4F3E832D832F86B98741
:1060D000ED85FE854490FA85F53009F07BC0412CB2
:1060E00079C020FC02C0598401C05C2C511004C04E
:1060F0002F813885231711F1332001F1EB80FC80CB
:10610000412C0D811E810A0D1B1D6E2C7F2CB98A1E
:10611000A88A452D68897989862D972D0E94D02FD0
:10612000888999890196998B888B0817190789F7AF
:1061300043949FEFE91AF90A3410E7CF2694DA94D2
:10614000A80CB91CD110CDCF532C2884AA85AF5FE1
:10615000AA87EB81FC81E80DF91DFC83EB832D857B
:106160003E852F5F3F4F3E872D87A63009F0B0CF89
:10617000A981BA8155962C91559730E0C901880FB5
:10618000991F820F931F880F991F1F964D915C9145
:106190005097840F951F50969C938E931F975696F9
:1061A0004C915697442309F16AEF6203A001639F63
:1061B000500D11249A0120583F4F28173907ACF48D
:1061C000ED91FC9111970190F081E02D6AE0CD01F5
:1061D00009950BC0AB84BC846894332433F82886BB
:1061E000242CD32C352CCF847CCF81E090E0619699
:1061F0000FB6F894DEBF0FBECDBFDF91CF911F91D8
:106200000F91FF90EF90DF90CF90BF90AF909F9055
:106210008F907F906F905F904F903F902F90089558
:106220008F929F92AF92BF92CF92DF92EF92FF92A6
:106230000F931F93CF93DF934C016B01EA01F22E72
:10624000102F0E2D0E94482B5E01A10EB11CA5013E
:10625000415051092F2DB601C4010E94482BDD2366
:1062600014F4C0E0D0E081E4A816B10424F06894EE
:10627000AA24A6F8B12CCA15DB05E4F48E014E2D34
:10628000B801C6010E94D02F0F5F1F4F0A151B05D2
:10629000B4F30AC04E2DBE01C6010E94D02F219634
:1062A000CA15DB05BCF306C0CF0CD11C81E0C81AAF
:1062B000D108F0CFDF91CF911F910F91FF90EF9018
:1062C000DF90CF90BF90AF909F908F9008950895EA
:1062D00080E090E00895EF920F93AB01440F551FBB
:1062E000440F551F640F751FAB014F5F5F4FBC011B
:1062F000660F771F660F771F860F971FBC016F5DB4
:106300007F4FEE24E39402E022E08EED95E00E94C0
:1063100010310F91EF9008951F93CF93DF93C62F05
:10632000D42F122F0E947A2F8C23C81324C061E02F
:1063300089E00E94822F88EC90E00E94742F60E038
:106340008D2F0E94822F82E090E00E94F93618176C
:1063500029F0612F82E090E00E94013784EF91E004
:106360000E94742F61E08D2F0E94822F0E947A2F4D
:106370008C23C817D9F3DF91CF911F910895E62F91
:10638000062E000CFF0B282F082E000C330BDF010C
:106390009DE08902A00DB11D1124A556B94F149698
:1063A0009C9191110E9478379DE0929FD001939F1C
:1063B000B00D1124A556B94FEA0FFB1F44839091ED
:1063C0009C06911102C00E947837915090939C06D0
:1063D0009091F105993A11F40E947837E92FF0E095
:1063E0008D3010F00E9478376D3010F00E947837B1
:1063F000EF50FA4F22953295307F3227207F322797
:106400006F70262B21839F5F9093F1051092D90521
:10641000089581E090911001913009F480E080931B
:1064200010010E947A2F82FD50C060E88EED95E049
:106430000E94C42F882339F08091000190910101BE
:10644000181619065CF160E18EED95E00E94C42FEC
:10645000882339F080910001909101018C309105E1
:106460001CF160E28EED95E00E94C42F882339F084
:10647000809102019091030118161906DCF060E486
:106480008EED95E00E94C42F8823F9F080910201DF
:10649000909103018C3091059CF0089501979093A1
:1064A000010180930001CFCF019690930101809369
:1064B0000001D7CF01979093030180930201DFCFB2
:1064C0000196909303018093020108959F92AF92E9
:1064D000BF92CF92DF92EF92FF920F931F93CF93D1
:1064E000DF93AA24AA94BA2CD0E09A2CFB2C0F2E6E
:1064F000FFE1CF2ED12CF02DC0E021E04C2F6D2FED
:106500008BE996E00E94971A182F2FEF4C2F6D2FD2
:106510008BE996E00E94971A163011F0863059F4F4
:10652000EE24E39406E026E0492D5F2DB6018EEDC2
:1065300095E00E941031CF5F85E0C80ED11CCD30B0
:10654000E1F6DF5F85E0A80EB11CDD3071F6DF916A
:10655000CF911F910F91FF90EF90DF90CF90BF9060
:10656000AF909F9008958F929F92AF92BF92CF92DB
:10657000DF92EF92FF920F931F93CF93DF935C0113
:10658000809100019091010106971CF485E390E051
:1065900002C082E090E0EAEDF5E020E230E0308BEE
:1065A0002787928B818B6C0122E0C21AD108C4E14B
:1065B000D0E07C012AE0E20EF11C4601DD2014F45B
:1065C000812C912C870181E4E816F10414F000E499
:1065D00010E0801691065CF440E0B401CE010E9408
:1065E000D02F2FEF821A920A80169106ACF32196D3
:1065F000C637D10511F7EE24E3940CE022E6A6019C
:1066000064E170E08EED95E00E941031B5018AEDF5
:1066100095E00E94242ADF91CF911F910F91FF9066
:10662000EF90DF90CF90BF90AF909F908F900895A4
:1066300068E08EED95E00E94B82F0895EFE9F6E04E
:1066400028E437E0CF010D9611928E179F07E1F7EE
:10665000FC0182179307B1F7EBE9F6E081E0808354
:1066600089EA818386E0828383831092F105E2EFD9
:10667000F5E08BE996E01192E817F907E1F710923F
:10668000D9051092C6011092C50186E090E0909362
:10669000030180930201909301018093000108950A
:1066A000EF920F934091000150910101CA01880FB0
:1066B000991F880F991F480F591F41505109609128
:1066C000020170910301CB01880F991F880F991F58
:1066D000680F791F615E7F4FE090100106E026E0B1
:1066E0008EED95E00E9410310F91EF9008958F92FA
:1066F0009F92AF92BF92CF92DF92EF92FF920F9351
:106700001F93CF93DF9360E070E080E090E00E9401
:106710006B316CE070E080E090E00E946B3160E0F3
:1067200070E08CE090E00E946B316CE070E08CE0F7
:1067300090E00E946B31D090F1058091C7018111EA
:10674000D090D805DD2021F1C2EFD5E0F12C0F2E3D
:10675000F2E7AF2EF1E3BF2EF02D0F2EF8E68F2ECD
:10676000F1E39F2EF02D8991682F62956F708F70E5
:10677000F0FE5FC046C00F2EF3E0CF2EF02DE12CCF
:1067800000E010E020E00E94B52CF394DF10EBCF86
:10679000EAEDF5E0108A1786128A118A8091C70106
:1067A000882319F14091D80550E060E070E02AE0BC
:1067B00030E0CF010E94B929CAEDD5E0188A1F86C2
:1067C00084E190E09A8B898B64EB71E0CE010E94AA
:1067D000242A188A1F868EE190E09A8B898B69EBB8
:1067E00071E0CE010E94242A3CC04091F10550E0A6
:1067F00060E070E02AE030E08AED95E00E94B9297F
:1068000030C0082E000C990B9C01220F331F220F61
:10681000331F820F931F8096062E000C770B9B016F
:10682000220F331F220F331F620F731F482D592D64
:10683000A2CF082E000C990B9C01220F331F220FB0
:10684000331F820F931F8096062E000C770B9B013F
:10685000220F331F220F331F620F731F4A2D5B2D30
:106860008ACFDF91CF911F910F91FF90EF90DF9032
:10687000CF90BF90AF909F908F9008951F93CF932C
:10688000DF93C82F64E08EED95E00E94C42F88232B
:1068900079F08091F1058093D80581E08093C7015C
:1068A00064E08EED95E00E94B82F811109C016C1F9
:1068B00064E08EED95E00E94B82F882309F409C1A9
:1068C0001092C7012091F1056091D805261709F4AF
:1068D00056C1621708F04FC1362F7DE0ABE9B6E034
:1068E0001FEFD1E0E32FF0E0EF50FA4F8181482F06
:1068F00042954F70042E000C550B8F70082E000C23
:10690000990B749FF001759FF00D1124E556F94F16
:10691000E80FF91FE481EE2371F01196EC911197C5
:10692000EF5F1196EC931197EC91E13011F0ED2FA0
:1069300001C0E12FEC93749FF001759FF00D1124BD
:10694000AF014556594FFA01E80FF91F14823F5F16
:106950002313C8CF0CC1DFEF71E03DE0ABE9B6E037
:10696000E22FF0E0EF50FA4F8181482F42954F70AF
:106970008F7020FF02C01D2F01C0172F042E000CA6
:10698000550B082E000C990B349FF001359FF00D2C
:106990001124E556F94FE80FF91FE481E1110E9437
:1069A0007837349FF001359FF00D1124AF01455623
:1069B000594FFA01E80FF91F148311968C91119722
:1069C000811102C00E947837815011968C931197E3
:1069D0002F5F261728F28091D905681305C0109201
:1069E000D90502C02093D905E091D805E093F105BF
:1069F000E0FF02C0DFEF01C0D1E0EE23D9F0F0E00C
:106A0000EF50FA4F4081642F62956F704F70862F60
:106A1000062E000C990B9093010180930001842FA6
:106A2000042E000C990B90930301809302014D30CA
:106A300080F40DC086E090E0909301018093000106
:106A4000909303018093020166E046E004C06D303C
:106A500010F00E9478378DE0689FF0011124E55610
:106A6000F94FE40FF11D24818BE996E00E94971AFB
:106A7000CC23A9F0863061F4D13019F088E090E0A1
:106A800002C089E090E09093C9058093C80577C063
:106A900086E090E09093C9058093C80570C0863069
:106AA00061F4D13019F083E090E002C084E090E01E
:106AB0009093C9058093C80562C0D13019F082E077
:106AC00090E002C081E090E09093C9058093C805F2
:106AD00056C08091C701882309F451C060E28EED51
:106AE00095E00E94B82F8823C9F0CC2379F08091DB
:106AF000D805823008F443C080FD04C082508093E2
:106B0000D8053DC081508093D80539C08091D80503
:106B10008823A9F181508093D80531C060E48EEDBF
:106B200095E00E94B82F882351F12091F1058091C2
:106B3000D905811101C0822FCC2389F09091D8050D
:106B400090FD1DC02230D8F09817C8F49E5F8917B9
:106B500018F09093D80513C08093D80510C0909179
:106B6000D805981760F49F5F9093D80508C0261742
:106B700008F038CF30CF261708F4EDCE33CFDF91B1
:106B8000CF911F910895EFE9F6E028E437E0CF01B7
:106B90000D9611928E179F07E1F7FC01821793075C
:106BA000B1F7EBE9F6E081E0808389EA818386E052
:106BB000828383831092F105E2EFF5E08BE996E0A2
:106BC00011928E179F07E1F7EAEDF5E0138212822A
:106BD0001186128680E183871086178215868CE3E2
:106BE00091E0918380838AE491E095838483108A85
:106BF0001786128A118A81E0838B148A858B168A04
:106C0000089580914C0781110BC0E8E4F7E082E021
:106C1000808384E081831382128281E080934C0719
:106C200088E497E008950F931F93CF93DF938C012F
:106C300081E090E00E94F93680FF30C08AE090E069
:106C40000E94F9369FEF980F9E3F40F522E330E017
:106C5000D80150963C932E931F9728E330E052962C
:106C60003C932E935197CBE0D0E0D801ED91FC916D
:106C70000190F081E02D682FC8010995CE010E9496
:106C8000F9362196C131D10581F760E088EC91E0B9
:106C90000E94AA2F88EE93E00E94742FDF91CF917B
:106CA0001F910F91089504970E94133608958F92B3
:106CB0009F92AF92BF92CF92DF92EF92FF92CF93CB
:106CC000DF93EC01688179818A819B81611571056F
:106CD0008105910521F464E279ED8BE597E02DE1E2
:106CE00033EF41E050E00E940F3749015A019B0108
:106CF000AC01A7EAB1E40E942E376B017C01ACEE37
:106D0000B4EFA50194010E943C37DC01CB018C0D4E
:106D10009D1DAE1DBF1DB7FF03C00197A109B0485F
:106D200088839983AA83BB83BC01CD019F77DF91C0
:106D3000CF91FF90EF90DF90CF90BF90AF909F905A
:106D40008F9008958F929F92AF92BF92CF92DF92D1
:106D5000EF92FF92609111017091120180911301E5
:106D600090911401611571058105910521F464E28A
:106D700079ED8BE597E02DE133EF41E050E00E94A3
:106D80000F3749015A019B01AC01A7EAB1E40E9407
:106D90002E376B017C01ACEEB4EFA50194010E948B
:106DA0003C37DC01CB018C0D9D1DAE1DBF1DB7FF17
:106DB00003C00197A109B04880931101909312017B
:106DC000A0931301B0931401BC01CD019F77FF90F4
:106DD000EF90DF90CF90BF90AF909F908F900895ED
:106DE0006093110170931201809313019093140129
:106DF0000895F999FECF92BD81BDF89A992780B583
:106E00000895262FF999FECF1FBA92BD81BD20BDEE
:106E10000FB6F894FA9AF99A0FBE01960895052EC6
:106E200097FB1EF400940E94263757FD07D00E945E
:106E3000413707FC03D04EF40C942637509540950B
:106E4000309521953F4F4F4F5F4F08959095809516
:106E5000709561957F4F8F4F9F4F08950E946337C4
:106E6000A59F900DB49F900DA49F800D911D11249E
:106E70000895B7FF0C942E370E942E37821B930B78
:106E80000895A1E21A2EAA1BBB1BFD010DC0AA1F6B
:106E9000BB1FEE1FFF1FA217B307E407F50720F083
:106EA000A21BB30BE40BF50B661F771F881F991FFE
:106EB0001A9469F760957095809590959B01AC0147
:106EC000BD01CF010895A29FB001B39FC001A39F50
:106ED000700D811D1124911DB29F700D811D112413
:106EE000911D0895EE0FFF1F0590F491E02D099478
:0E6EF00081E090E0F8940C947D37F894FFCF89
:106EFE0006000600FFFFFFFF00E10000000000009B
:106F0E0001010000000000000064000000C8000045
:106F1E0000F4010000E80300001027000040420FBB
:106F2E000000C1808100000000000000EE2FC82587
:106F3E00683167311336FCFF0000533650207673EC
:106F4E0020414920656173790050207673204149B4
:106F5E0020686172640050312076732050320050E8
:106F6E006C61796572203120776F6E2100506C61F3
:106F7E00796572203220776F6E2100497420697313
:106F8E002061206472617721005468652068756DF8
:106F9E00616E20776F6E210054686520414920771D
:0E6FAE006F6E21003C2D2D3E00554E444F00CD
:00000001FF
